{
  "contractName": "MultisigWallet",
  "abi": [
    {
      "inputs": [],
      "stateMutability": "nonpayable",
      "type": "constructor"
    },
    {
      "stateMutability": "nonpayable",
      "type": "fallback"
    },
    {
      "inputs": [],
      "name": "maxSigners",
      "outputs": [
        {
          "internalType": "uint256",
          "name": "",
          "type": "uint256"
        }
      ],
      "stateMutability": "view",
      "type": "function"
    },
    {
      "inputs": [],
      "name": "numSigners",
      "outputs": [
        {
          "internalType": "uint256",
          "name": "",
          "type": "uint256"
        }
      ],
      "stateMutability": "view",
      "type": "function"
    },
    {
      "inputs": [],
      "name": "owner",
      "outputs": [
        {
          "internalType": "address",
          "name": "",
          "type": "address"
        }
      ],
      "stateMutability": "view",
      "type": "function"
    },
    {
      "inputs": [
        {
          "internalType": "address",
          "name": "",
          "type": "address"
        }
      ],
      "name": "signers",
      "outputs": [
        {
          "internalType": "bool",
          "name": "",
          "type": "bool"
        }
      ],
      "stateMutability": "view",
      "type": "function"
    },
    {
      "inputs": [
        {
          "internalType": "uint256",
          "name": "",
          "type": "uint256"
        }
      ],
      "name": "transferProposals",
      "outputs": [
        {
          "internalType": "uint256",
          "name": "id",
          "type": "uint256"
        },
        {
          "internalType": "address payable",
          "name": "receiver",
          "type": "address"
        },
        {
          "internalType": "uint256",
          "name": "amount",
          "type": "uint256"
        },
        {
          "internalType": "uint256",
          "name": "yesVotes",
          "type": "uint256"
        },
        {
          "internalType": "uint256",
          "name": "noVotes",
          "type": "uint256"
        },
        {
          "internalType": "enum MultisigWallet.Status",
          "name": "status",
          "type": "uint8"
        }
      ],
      "stateMutability": "view",
      "type": "function"
    },
    {
      "inputs": [
        {
          "internalType": "address",
          "name": "_newSigner",
          "type": "address"
        }
      ],
      "name": "addSigner",
      "outputs": [],
      "stateMutability": "nonpayable",
      "type": "function"
    },
    {
      "inputs": [],
      "name": "deposit",
      "outputs": [],
      "stateMutability": "payable",
      "type": "function"
    },
    {
      "inputs": [
        {
          "internalType": "address payable",
          "name": "_receiver",
          "type": "address"
        },
        {
          "internalType": "uint256",
          "name": "_amount",
          "type": "uint256"
        }
      ],
      "name": "proposeTransfer",
      "outputs": [],
      "stateMutability": "nonpayable",
      "type": "function"
    },
    {
      "inputs": [
        {
          "internalType": "uint256",
          "name": "_proposalId",
          "type": "uint256"
        },
        {
          "internalType": "bool",
          "name": "_vote",
          "type": "bool"
        }
      ],
      "name": "voteOnTransferProposal",
      "outputs": [],
      "stateMutability": "nonpayable",
      "type": "function"
    }
  ],
  "bytecode": "0x608060405234801561001057600080fd5b506003600181905550336000806101000a81548173ffffffffffffffffffffffffffffffffffffffff021916908373ffffffffffffffffffffffffffffffffffffffff16021790555061008860008054906101000a900473ffffffffffffffffffffffffffffffffffffffff1661008d60201b60201c565b6101b8565b60008054906101000a900473ffffffffffffffffffffffffffffffffffffffff1673ffffffffffffffffffffffffffffffffffffffff163373ffffffffffffffffffffffffffffffffffffffff16146100e557600080fd5b600154600254106100f557600080fd5b600360008273ffffffffffffffffffffffffffffffffffffffff1673ffffffffffffffffffffffffffffffffffffffff16815260200190815260200160002060009054906101000a900460ff161561014c57600080fd5b6001600360008373ffffffffffffffffffffffffffffffffffffffff1673ffffffffffffffffffffffffffffffffffffffff16815260200190815260200160002060006101000a81548160ff021916908315150217905550600160026000828254019250508190555050565b61097e806101c76000396000f3fe60806040526004361061008a5760003560e01c8063736c0d5b11610059578063736c0d5b146101e15780638da5cb5b14610248578063b9ccec9a14610289578063d0e30db0146102d0578063eb12d61e146102da5761008b565b8063012fe7fd1461009d57806311ac9a921461013057806312679fed1461018b578063371cba56146101b65761008b565b5b34801561009757600080fd5b50600080fd5b3480156100a957600080fd5b506100d6600480360360208110156100c057600080fd5b810190808035906020019092919050505061032b565b604051808781526020018673ffffffffffffffffffffffffffffffffffffffff16815260200185815260200184815260200183815260200182600281111561011a57fe5b8152602001965050505050505060405180910390f35b34801561013c57600080fd5b506101896004803603604081101561015357600080fd5b81019080803573ffffffffffffffffffffffffffffffffffffffff169060200190929190803590602001909291905050506103a1565b005b34801561019757600080fd5b506101a0610516565b6040518082815260200191505060405180910390f35b3480156101c257600080fd5b506101cb61051c565b6040518082815260200191505060405180910390f35b3480156101ed57600080fd5b506102306004803603602081101561020457600080fd5b81019080803573ffffffffffffffffffffffffffffffffffffffff169060200190929190505050610522565b60405180821515815260200191505060405180910390f35b34801561025457600080fd5b5061025d610542565b604051808273ffffffffffffffffffffffffffffffffffffffff16815260200191505060405180910390f35b34801561029557600080fd5b506102ce600480360360408110156102ac57600080fd5b8101908080359060200190929190803515159060200190929190505050610566565b005b6102d861070d565b005b3480156102e657600080fd5b50610329600480360360208110156102fd57600080fd5b81019080803573ffffffffffffffffffffffffffffffffffffffff169060200190929190505050610765565b005b6004818154811061033857fe5b90600052602060002090600602016000915090508060000154908060010160009054906101000a900473ffffffffffffffffffffffffffffffffffffffff16908060020154908060030154908060040154908060050160009054906101000a900460ff16905086565b600360003373ffffffffffffffffffffffffffffffffffffffff1673ffffffffffffffffffffffffffffffffffffffff16815260200190815260200160002060009054906101000a900460ff166103f757600080fd5b60046040518060c0016040528060048054905081526020018473ffffffffffffffffffffffffffffffffffffffff16815260200183815260200160008152602001600081526020016000600281111561044c57fe5b81525090806001815401808255809150506001900390600052602060002090600602016000909190919091506000820151816000015560208201518160010160006101000a81548173ffffffffffffffffffffffffffffffffffffffff021916908373ffffffffffffffffffffffffffffffffffffffff16021790555060408201518160020155606082015181600301556080820151816004015560a08201518160050160006101000a81548160ff0219169083600281111561050b57fe5b021790555050505050565b60025481565b60015481565b60036020528060005260406000206000915054906101000a900460ff1681565b60008054906101000a900473ffffffffffffffffffffffffffffffffffffffff1681565b600360003373ffffffffffffffffffffffffffffffffffffffff1673ffffffffffffffffffffffffffffffffffffffff16815260200190815260200160002060009054906101000a900460ff166105bc57600080fd5b81600060028111156105ca57fe5b600482815481106105d757fe5b906000526020600020906006020160050160009054906101000a900460ff16600281111561060157fe5b1461060b57600080fd5b81156106735760016004848154811061062057fe5b90600052602060002090600602016003016000828254019250508190555060026004848154811061064d57fe5b9060005260206000209060060201600301541061066e5761066d83610890565b5b610708565b60016004848154811061068257fe5b9060005260206000209060060201600401600082825401925050819055506001600484815481106106af57fe5b90600052602060002090600602016004015410610707576001600484815481106106d557fe5b906000526020600020906006020160050160006101000a81548160ff0219169083600281111561070157fe5b02179055505b5b505050565b600360003373ffffffffffffffffffffffffffffffffffffffff1673ffffffffffffffffffffffffffffffffffffffff16815260200190815260200160002060009054906101000a900460ff1661076357600080fd5b565b60008054906101000a900473ffffffffffffffffffffffffffffffffffffffff1673ffffffffffffffffffffffffffffffffffffffff163373ffffffffffffffffffffffffffffffffffffffff16146107bd57600080fd5b600154600254106107cd57600080fd5b600360008273ffffffffffffffffffffffffffffffffffffffff1673ffffffffffffffffffffffffffffffffffffffff16815260200190815260200160002060009054906101000a900460ff161561082457600080fd5b6001600360008373ffffffffffffffffffffffffffffffffffffffff1673ffffffffffffffffffffffffffffffffffffffff16815260200190815260200160002060006101000a81548160ff021916908315150217905550600160026000828254019250508190555050565b60006004828154811061089f57fe5b906000526020600020906006020190508060010160009054906101000a900473ffffffffffffffffffffffffffffffffffffffff1673ffffffffffffffffffffffffffffffffffffffff166108fc82600201549081150290604051600060405180830381858888f1935050505015801561091d573d6000803e3d6000fd5b5060028160050160006101000a81548160ff0219169083600281111561093f57fe5b0217905550505056fea26469706673582212201e768d0578ec894b0aee86877af452e869bbacf62f810c5a3e61fc8ca503703064736f6c63430007000033",
  "immutableReferences": {},
  "source": "// SPDX-License-Identifier: Unlicense\n\npragma solidity ^0.7.0;\n\ncontract MultisigWallet {\n    address public owner;\n    uint public maxSigners;\n    uint public numSigners;\n    mapping(address => bool) public signers;\n    TransferProposal[] public transferProposals;\n\n    enum Status { Voting, Rejected, Executed }\n\n    struct TransferProposal {\n        uint id;\n        address payable receiver;\n        uint amount;\n        uint yesVotes;\n        uint noVotes;\n        Status status;\n    }\n\n    modifier onlyOwner {\n        require(msg.sender == owner);\n        _;\n    }\n\n    modifier onlySigner {\n        require(signers[msg.sender]);\n        _;\n    }\n\n    modifier spotAvailable {\n        require(numSigners < maxSigners);\n        _;\n    }\n\n    modifier hasVotingStatus(uint _proposalId) {\n        require(transferProposals[_proposalId].status == Status.Voting);\n        _;\n    }\n\n    constructor() {\n        maxSigners = 3;\n        owner = msg.sender;\n        addSigner(owner);\n    }\n\n    function addSigner(address _newSigner) onlyOwner spotAvailable public {\n        // Avoid incrementing `numSigners` if address is already a signer\n        require(!signers[_newSigner]);\n\n        signers[_newSigner] = true;\n        numSigners += 1;\n    }\n\n    function deposit() onlySigner public payable {}\n\n    function proposeTransfer(address payable _receiver, uint _amount) onlySigner public {\n        transferProposals.push(TransferProposal({\n            id: transferProposals.length,\n            receiver: _receiver,\n            amount: _amount,\n            yesVotes: 0,\n            noVotes: 0,\n            status: Status.Voting\n        }));\n    }\n\n    function voteOnTransferProposal(uint _proposalId, bool _vote) onlySigner hasVotingStatus(_proposalId) public {\n        if (_vote) {\n            transferProposals[_proposalId].yesVotes += 1;\n\n            if (transferProposals[_proposalId].yesVotes >= 2) {\n                executeTransfer(_proposalId);\n            }\n        } else {\n            transferProposals[_proposalId].noVotes += 1;\n\n            if (transferProposals[_proposalId].noVotes >= 1) {\n                transferProposals[_proposalId].status = Status.Rejected;\n            }\n        }\n    }\n\n    function executeTransfer(uint _proposalId) private {\n        TransferProposal storage proposal = transferProposals[_proposalId];\n\n        proposal.receiver.transfer(proposal.amount);\n\n        proposal.status = Status.Executed;\n    }\n\n    fallback() external {\n        revert();\n    }\n}",
  "sourcePath": "/Users/ashton/Programming/practice-smart-contracts/multisig-wallet/contracts/MultisigWallet.sol",
  "compiler": {
    "name": "solc",
    "version": "0.7.0+commit.9e61f92b.Emscripten.clang"
  },
  "schemaVersion": "3.2.4",
  "updatedAt": "2020-09-16T11:54:27.994Z",
  "devdoc": {
    "kind": "dev",
    "methods": {},
    "version": 1
  },
  "userdoc": {
    "kind": "user",
    "methods": {},
    "version": 1
  }
}