{
  "contractName": "MultisigWallet",
  "abi": [
    {
      "inputs": [],
      "stateMutability": "nonpayable",
      "type": "constructor"
    },
    {
      "stateMutability": "nonpayable",
      "type": "fallback"
    },
    {
      "inputs": [],
      "name": "maxSigners",
      "outputs": [
        {
          "internalType": "uint256",
          "name": "",
          "type": "uint256"
        }
      ],
      "stateMutability": "view",
      "type": "function",
      "constant": true
    },
    {
      "inputs": [],
      "name": "numSigners",
      "outputs": [
        {
          "internalType": "uint256",
          "name": "",
          "type": "uint256"
        }
      ],
      "stateMutability": "view",
      "type": "function",
      "constant": true
    },
    {
      "inputs": [],
      "name": "owner",
      "outputs": [
        {
          "internalType": "address",
          "name": "",
          "type": "address"
        }
      ],
      "stateMutability": "view",
      "type": "function",
      "constant": true
    },
    {
      "inputs": [
        {
          "internalType": "address",
          "name": "",
          "type": "address"
        }
      ],
      "name": "signers",
      "outputs": [
        {
          "internalType": "bool",
          "name": "",
          "type": "bool"
        }
      ],
      "stateMutability": "view",
      "type": "function",
      "constant": true
    },
    {
      "inputs": [
        {
          "internalType": "address",
          "name": "_newSigner",
          "type": "address"
        }
      ],
      "name": "addSigner",
      "outputs": [],
      "stateMutability": "nonpayable",
      "type": "function"
    },
    {
      "inputs": [],
      "name": "deposit",
      "outputs": [],
      "stateMutability": "payable",
      "type": "function",
      "payable": true
    },
    {
      "inputs": [
        {
          "internalType": "address payable",
          "name": "_receiver",
          "type": "address"
        },
        {
          "internalType": "uint256",
          "name": "_amount",
          "type": "uint256"
        }
      ],
      "name": "proposeTransfer",
      "outputs": [],
      "stateMutability": "nonpayable",
      "type": "function"
    },
    {
      "inputs": [
        {
          "internalType": "uint256",
          "name": "_proposalId",
          "type": "uint256"
        },
        {
          "internalType": "bool",
          "name": "_vote",
          "type": "bool"
        }
      ],
      "name": "voteOnTransferProposal",
      "outputs": [],
      "stateMutability": "nonpayable",
      "type": "function"
    }
  ],
  "bytecode": "0x608060405234801561001057600080fd5b506003600181905550336000806101000a81548173ffffffffffffffffffffffffffffffffffffffff021916908373ffffffffffffffffffffffffffffffffffffffff16021790555061008860008054906101000a900473ffffffffffffffffffffffffffffffffffffffff1661008d60201b60201c565b610161565b60008054906101000a900473ffffffffffffffffffffffffffffffffffffffff1673ffffffffffffffffffffffffffffffffffffffff163373ffffffffffffffffffffffffffffffffffffffff16146100e557600080fd5b600154600254106100f557600080fd5b6001600360008373ffffffffffffffffffffffffffffffffffffffff1673ffffffffffffffffffffffffffffffffffffffff16815260200190815260200160002060006101000a81548160ff021916908315150217905550600160026000828254019250508190555050565b6107af806101706000396000f3fe60806040526004361061007f5760003560e01c80638da5cb5b1161004e5780638da5cb5b146101aa578063b9ccec9a146101eb578063d0e30db014610232578063eb12d61e1461023c57610080565b806311ac9a921461009257806312679fed146100ed578063371cba5614610118578063736c0d5b1461014357610080565b5b34801561008c57600080fd5b50600080fd5b34801561009e57600080fd5b506100eb600480360360408110156100b557600080fd5b81019080803573ffffffffffffffffffffffffffffffffffffffff1690602001909291908035906020019092919050505061028d565b005b3480156100f957600080fd5b506101026103c7565b6040518082815260200191505060405180910390f35b34801561012457600080fd5b5061012d6103cd565b6040518082815260200191505060405180910390f35b34801561014f57600080fd5b506101926004803603602081101561016657600080fd5b81019080803573ffffffffffffffffffffffffffffffffffffffff1690602001909291905050506103d3565b60405180821515815260200191505060405180910390f35b3480156101b657600080fd5b506101bf6103f3565b604051808273ffffffffffffffffffffffffffffffffffffffff16815260200191505060405180910390f35b3480156101f757600080fd5b506102306004803603604081101561020e57600080fd5b8101908080359060200190929190803515159060200190929190505050610417565b005b61023a610507565b005b34801561024857600080fd5b5061028b6004803603602081101561025f57600080fd5b81019080803573ffffffffffffffffffffffffffffffffffffffff16906020019092919050505061055f565b005b600360003373ffffffffffffffffffffffffffffffffffffffff1673ffffffffffffffffffffffffffffffffffffffff16815260200190815260200160002060009054906101000a900460ff166102e357600080fd5b60046040518060a0016040528060048054905081526020018473ffffffffffffffffffffffffffffffffffffffff16815260200183815260200160008152602001600081525090806001815401808255809150506001900390600052602060002090600502016000909190919091506000820151816000015560208201518160010160006101000a81548173ffffffffffffffffffffffffffffffffffffffff021916908373ffffffffffffffffffffffffffffffffffffffff16021790555060408201518160020155606082015181600301556080820151816004015550505050565b60025481565b60015481565b60036020528060005260406000206000915054906101000a900460ff1681565b60008054906101000a900473ffffffffffffffffffffffffffffffffffffffff1681565b600360003373ffffffffffffffffffffffffffffffffffffffff1673ffffffffffffffffffffffffffffffffffffffff16815260200190815260200160002060009054906101000a900460ff1661046d57600080fd5b80156104d55760016004838154811061048257fe5b9060005260206000209060050201600301600082825401925050819055506002600483815481106104af57fe5b906000526020600020906005020160030154106104d0576104cf82610633565b5b610503565b6001600483815481106104e457fe5b9060005260206000209060050201600401600082825401925050819055505b5050565b600360003373ffffffffffffffffffffffffffffffffffffffff1673ffffffffffffffffffffffffffffffffffffffff16815260200190815260200160002060009054906101000a900460ff1661055d57600080fd5b565b60008054906101000a900473ffffffffffffffffffffffffffffffffffffffff1673ffffffffffffffffffffffffffffffffffffffff163373ffffffffffffffffffffffffffffffffffffffff16146105b757600080fd5b600154600254106105c757600080fd5b6001600360008373ffffffffffffffffffffffffffffffffffffffff1673ffffffffffffffffffffffffffffffffffffffff16815260200190815260200160002060006101000a81548160ff021916908315150217905550600160026000828254019250508190555050565b61063b610734565b6004828154811061064857fe5b90600052602060002090600502016040518060a0016040529081600082015481526020016001820160009054906101000a900473ffffffffffffffffffffffffffffffffffffffff1673ffffffffffffffffffffffffffffffffffffffff1673ffffffffffffffffffffffffffffffffffffffff16815260200160028201548152602001600382015481526020016004820154815250509050806020015173ffffffffffffffffffffffffffffffffffffffff166108fc82604001519081150290604051600060405180830381858888f1935050505015801561072f573d6000803e3d6000fd5b505050565b6040518060a0016040528060008152602001600073ffffffffffffffffffffffffffffffffffffffff168152602001600081526020016000815260200160008152509056fea264697066735822122087d9fc757e14832601e6dd6995bffa5f6156da386022b70a1a157199bbe7760264736f6c63430007000033",
  "immutableReferences": {},
  "source": "// SPDX-License-Identifier: Unlicense\n\npragma solidity ^0.7.0;\n\ncontract MultisigWallet {\n    address public owner;\n    uint public maxSigners;\n    uint public numSigners;\n    mapping(address => bool) public signers;\n    TransferProposal[] transferProposals;\n\n    struct TransferProposal {\n        uint id;\n        address payable receiver;\n        uint amount;\n        uint yesVotes;\n        uint noVotes;\n    }\n\n    modifier onlyOwner {\n        require(msg.sender == owner);\n        _;\n    }\n\n    modifier onlySigner {\n        require(signers[msg.sender]);\n        _;\n    }\n    \n    modifier spotAvailable {\n        require(numSigners < maxSigners);\n        _;\n    }\n\n    constructor() {\n        maxSigners = 3;\n        owner = msg.sender;\n        addSigner(owner);\n    }\n\n    // add check that signer hasn't already been added\n    function addSigner(address _newSigner) onlyOwner spotAvailable public {\n        signers[_newSigner] = true;\n        numSigners += 1;\n    }\n\n    function deposit() onlySigner public payable {}\n\n    function proposeTransfer(address payable _receiver, uint _amount) onlySigner public {\n        transferProposals.push(TransferProposal({\n            id: transferProposals.length,\n            receiver: _receiver,\n            amount: _amount,\n            yesVotes: 0,\n            noVotes: 0\n        }));\n    }\n\n    function voteOnTransferProposal(uint _proposalId, bool _vote) onlySigner public {\n        if (_vote) {\n            transferProposals[_proposalId].yesVotes += 1;\n\n            if (transferProposals[_proposalId].yesVotes >= 2) {\n                executeTransfer(_proposalId);\n            }\n        } else {\n            transferProposals[_proposalId].noVotes += 1;\n        }\n    }\n\n    function executeTransfer(uint _proposalId) private {\n        TransferProposal memory proposal = transferProposals[_proposalId];\n\n        proposal.receiver.transfer(proposal.amount);\n    }\n\n    fallback() external {\n        revert();\n    }\n}",
  "sourcePath": "/Users/ashton/Programming/practice-smart-contracts/multisig-wallet/contracts/MultisigWallet.sol",
  "compiler": {
    "name": "solc",
    "version": "0.7.0+commit.9e61f92b.Emscripten.clang"
  },
  "schemaVersion": "3.2.4",
  "updatedAt": "2020-09-16T07:12:58.988Z",
  "networkType": "ethereum",
  "devdoc": {
    "kind": "dev",
    "methods": {},
    "version": 1
  },
  "userdoc": {
    "kind": "user",
    "methods": {},
    "version": 1
  }
}