{
  "contractName": "MultisigWallet",
  "abi": [
    {
      "inputs": [],
      "stateMutability": "nonpayable",
      "type": "constructor"
    },
    {
      "stateMutability": "nonpayable",
      "type": "fallback"
    },
    {
      "inputs": [
        {
          "internalType": "address",
          "name": "_newSigner",
          "type": "address"
        }
      ],
      "name": "addSigner",
      "outputs": [],
      "stateMutability": "nonpayable",
      "type": "function"
    },
    {
      "inputs": [],
      "name": "deposit",
      "outputs": [],
      "stateMutability": "payable",
      "type": "function"
    },
    {
      "inputs": [
        {
          "internalType": "address",
          "name": "_receiver",
          "type": "address"
        },
        {
          "internalType": "uint256",
          "name": "_amount",
          "type": "uint256"
        }
      ],
      "name": "proposeTransfer",
      "outputs": [],
      "stateMutability": "nonpayable",
      "type": "function"
    },
    {
      "inputs": [
        {
          "internalType": "uint256",
          "name": "_proposalId",
          "type": "uint256"
        },
        {
          "internalType": "bool",
          "name": "_vote",
          "type": "bool"
        }
      ],
      "name": "voteOnTransferProposal",
      "outputs": [],
      "stateMutability": "nonpayable",
      "type": "function"
    }
  ],
  "bytecode": "0x608060405234801561001057600080fd5b50610193806100206000396000f3fe6080604052600436106100435760003560e01c806311ac9a9214610053578063b9ccec9a146100ae578063d0e30db0146100f5578063eb12d61e146100ff57610044565b5b34801561005057600080fd5b50005b34801561005f57600080fd5b506100ac6004803603604081101561007657600080fd5b81019080803573ffffffffffffffffffffffffffffffffffffffff16906020019092919080359060200190929190505050610150565b005b3480156100ba57600080fd5b506100f3600480360360408110156100d157600080fd5b8101908080359060200190929190803515159060200190929190505050610154565b005b6100fd610158565b005b34801561010b57600080fd5b5061014e6004803603602081101561012257600080fd5b81019080803573ffffffffffffffffffffffffffffffffffffffff16906020019092919050505061015a565b005b5050565b5050565b565b5056fea264697066735822122067d2c921c41aaa2e879d255d08977e5a49bae9fdf79d03866d41b62e06ee82d364736f6c63430007000033",
  "immutableReferences": {},
  "source": "// SPDX-License-Identifier: Unlicense\n\npragma solidity ^0.7.0;\n\ncontract MultisigWallet {\n    address owner;\n    address[] signers;\n    TransferProposal[] transferProposals;\n\n    struct TransferProposal {\n        address receiver;\n        uint amount;\n    }\n\n    modifier onlyOwner { _; }\n    modifier onlySigner { _; }\n    modifier spotAvailable { _; }\n\n    constructor() {}\n\n    function addSigner(address _newSigner) onlyOwner spotAvailable public {}\n\n    function deposit() onlySigner public payable {}\n\n    function proposeTransfer(address _receiver, uint _amount) onlySigner public {}\n\n    function voteOnTransferProposal(uint _proposalId, bool _vote) onlySigner public {}\n\n    function executeTransfer(uint _proposalId) private {}\n\n    fallback() external {}\n}",
  "sourcePath": "/Users/ashton/Programming/practice-smart-contracts/multisig-wallet/contracts/MultisigWallet.sol",
  "compiler": {
    "name": "solc",
    "version": "0.7.0+commit.9e61f92b.Emscripten.clang"
  },
  "schemaVersion": "3.2.4",
  "updatedAt": "2020-09-15T16:22:42.148Z",
  "devdoc": {
    "kind": "dev",
    "methods": {},
    "version": 1
  },
  "userdoc": {
    "kind": "user",
    "methods": {},
    "version": 1
  }
}