{
  "contractName": "MultisigWallet",
  "abi": [
    {
      "inputs": [
        {
          "internalType": "address[]",
          "name": "_signers",
          "type": "address[]"
        },
        {
          "internalType": "uint256",
          "name": "_quorum",
          "type": "uint256"
        }
      ],
      "stateMutability": "nonpayable",
      "type": "constructor"
    },
    {
      "anonymous": false,
      "inputs": [
        {
          "indexed": true,
          "internalType": "address",
          "name": "sender",
          "type": "address"
        },
        {
          "indexed": true,
          "internalType": "uint256",
          "name": "amount",
          "type": "uint256"
        }
      ],
      "name": "Deposit",
      "type": "event"
    },
    {
      "anonymous": false,
      "inputs": [
        {
          "indexed": true,
          "internalType": "uint256",
          "name": "proposalId",
          "type": "uint256"
        }
      ],
      "name": "TransferExecuted",
      "type": "event"
    },
    {
      "anonymous": false,
      "inputs": [
        {
          "indexed": true,
          "internalType": "address",
          "name": "proposer",
          "type": "address"
        },
        {
          "indexed": true,
          "internalType": "uint256",
          "name": "proposalId",
          "type": "uint256"
        }
      ],
      "name": "TransferProposed",
      "type": "event"
    },
    {
      "anonymous": false,
      "inputs": [
        {
          "indexed": true,
          "internalType": "uint256",
          "name": "proposalId",
          "type": "uint256"
        }
      ],
      "name": "TransferRejected",
      "type": "event"
    },
    {
      "anonymous": false,
      "inputs": [
        {
          "indexed": true,
          "internalType": "address",
          "name": "voter",
          "type": "address"
        },
        {
          "indexed": true,
          "internalType": "uint256",
          "name": "proposalId",
          "type": "uint256"
        },
        {
          "indexed": true,
          "internalType": "bool",
          "name": "vote",
          "type": "bool"
        }
      ],
      "name": "Vote",
      "type": "event"
    },
    {
      "stateMutability": "nonpayable",
      "type": "fallback"
    },
    {
      "inputs": [],
      "name": "numProposals",
      "outputs": [
        {
          "internalType": "uint256",
          "name": "",
          "type": "uint256"
        }
      ],
      "stateMutability": "view",
      "type": "function",
      "constant": true
    },
    {
      "inputs": [],
      "name": "numSigners",
      "outputs": [
        {
          "internalType": "uint256",
          "name": "",
          "type": "uint256"
        }
      ],
      "stateMutability": "view",
      "type": "function",
      "constant": true
    },
    {
      "inputs": [
        {
          "internalType": "address",
          "name": "",
          "type": "address"
        }
      ],
      "name": "signers",
      "outputs": [
        {
          "internalType": "bool",
          "name": "",
          "type": "bool"
        }
      ],
      "stateMutability": "view",
      "type": "function",
      "constant": true
    },
    {
      "inputs": [
        {
          "internalType": "uint256",
          "name": "",
          "type": "uint256"
        }
      ],
      "name": "transferProposals",
      "outputs": [
        {
          "internalType": "uint256",
          "name": "id",
          "type": "uint256"
        },
        {
          "internalType": "address payable",
          "name": "receiver",
          "type": "address"
        },
        {
          "internalType": "uint256",
          "name": "amount",
          "type": "uint256"
        },
        {
          "internalType": "uint256",
          "name": "yesVotes",
          "type": "uint256"
        },
        {
          "internalType": "uint256",
          "name": "noVotes",
          "type": "uint256"
        },
        {
          "internalType": "enum MultisigWallet.Status",
          "name": "status",
          "type": "uint8"
        }
      ],
      "stateMutability": "view",
      "type": "function",
      "constant": true
    },
    {
      "inputs": [
        {
          "internalType": "address",
          "name": "",
          "type": "address"
        },
        {
          "internalType": "uint256",
          "name": "",
          "type": "uint256"
        }
      ],
      "name": "votes",
      "outputs": [
        {
          "internalType": "bool",
          "name": "",
          "type": "bool"
        }
      ],
      "stateMutability": "view",
      "type": "function",
      "constant": true
    },
    {
      "inputs": [],
      "name": "deposit",
      "outputs": [],
      "stateMutability": "payable",
      "type": "function",
      "payable": true
    },
    {
      "inputs": [
        {
          "internalType": "address payable",
          "name": "_receiver",
          "type": "address"
        },
        {
          "internalType": "uint256",
          "name": "_amount",
          "type": "uint256"
        }
      ],
      "name": "proposeTransfer",
      "outputs": [],
      "stateMutability": "nonpayable",
      "type": "function"
    },
    {
      "inputs": [
        {
          "internalType": "uint256",
          "name": "_proposalId",
          "type": "uint256"
        },
        {
          "internalType": "bool",
          "name": "_vote",
          "type": "bool"
        }
      ],
      "name": "voteOnTransferProposal",
      "outputs": [],
      "stateMutability": "nonpayable",
      "type": "function"
    }
  ],
  "bytecode": "0x608060405234801561001057600080fd5b506040516110613803806110618339818101604052604081101561003357600080fd5b810190808051604051939291908464010000000082111561005357600080fd5b8382019150602082018581111561006957600080fd5b825186602082028301116401000000008211171561008657600080fd5b8083526020830192505050908051906020019060200280838360005b838110156100bd5780820151818401526020810190506100a2565b50505050905001604052602001805190602001909291905050508151600081905550806001819055506000600260006101000a81548160ff021916908315150217905550600060038190555060005b60005481101561018e5760016004600085848151811061012857fe5b602002602001015173ffffffffffffffffffffffffffffffffffffffff1673ffffffffffffffffffffffffffffffffffffffff16815260200190815260200160002060006101000a81548160ff021916908315150217905550808060010191505061010c565b505050610ec1806101a06000396000f3fe60806040526004361061007f5760003560e01c8063736c0d5b1161004e578063736c0d5b146101d65780639f2524ee1461023d578063b9ccec9a146102ae578063d0e30db0146102f557610080565b8063012fe7fd1461009257806311ac9a921461012557806312679fed14610180578063400e3949146101ab57610080565b5b34801561008c57600080fd5b50600080fd5b34801561009e57600080fd5b506100cb600480360360208110156100b557600080fd5b81019080803590602001909291905050506102ff565b604051808781526020018673ffffffffffffffffffffffffffffffffffffffff16815260200185815260200184815260200183815260200182600281111561010f57fe5b8152602001965050505050505060405180910390f35b34801561013157600080fd5b5061017e6004803603604081101561014857600080fd5b81019080803573ffffffffffffffffffffffffffffffffffffffff16906020019092919080359060200190929190505050610375565b005b34801561018c57600080fd5b50610195610685565b6040518082815260200191505060405180910390f35b3480156101b757600080fd5b506101c061068b565b6040518082815260200191505060405180910390f35b3480156101e257600080fd5b50610225600480360360208110156101f957600080fd5b81019080803573ffffffffffffffffffffffffffffffffffffffff169060200190929190505050610691565b60405180821515815260200191505060405180910390f35b34801561024957600080fd5b506102966004803603604081101561026057600080fd5b81019080803573ffffffffffffffffffffffffffffffffffffffff169060200190929190803590602001909291905050506106b1565b60405180821515815260200191505060405180910390f35b3480156102ba57600080fd5b506102f3600480360360408110156102d157600080fd5b81019080803590602001909291908035151590602001909291905050506106e0565b005b6102fd610ac0565b005b6006818154811061030c57fe5b90600052602060002090600602016000915090508060000154908060010160009054906101000a900473ffffffffffffffffffffffffffffffffffffffff16908060020154908060030154908060040154908060050160009054906101000a900460ff16905086565b600460003373ffffffffffffffffffffffffffffffffffffffff1673ffffffffffffffffffffffffffffffffffffffff16815260200190815260200160002060009054906101000a900460ff16610417576040517f08c379a0000000000000000000000000000000000000000000000000000000008152600401808060200182810382526023815260200180610e206023913960400191505060405180910390fd5b600260009054906101000a900460ff161561047d576040517f08c379a0000000000000000000000000000000000000000000000000000000008152600401808060200182810382526023815260200180610e696023913960400191505060405180910390fd5b60066040518060c0016040528060068054905081526020018473ffffffffffffffffffffffffffffffffffffffff1681526020018381526020016001815260200160008152602001600060028111156104d257fe5b81525090806001815401808255809150506001900390600052602060002090600602016000909190919091506000820151816000015560208201518160010160006101000a81548173ffffffffffffffffffffffffffffffffffffffff021916908373ffffffffffffffffffffffffffffffffffffffff16021790555060408201518160020155606082015181600301556080820151816004015560a08201518160050160006101000a81548160ff0219169083600281111561059157fe5b021790555050506001600260006101000a81548160ff0219169083151502179055506001600560003373ffffffffffffffffffffffffffffffffffffffff1673ffffffffffffffffffffffffffffffffffffffff1681526020019081526020016000206000600160068054905003815260200190815260200160002060006101000a81548160ff02191690831515021790555060016003600082825401925050819055506001600680549050033373ffffffffffffffffffffffffffffffffffffffff167fd6a8c8c7a47bed7c3562b43f5528822886d1e0845247598294d2cf8e56d57e0d60405160405180910390a35050565b60005481565b60035481565b60046020528060005260406000206000915054906101000a900460ff1681565b60056020528160005260406000206020528060005260406000206000915091509054906101000a900460ff1681565b600460003373ffffffffffffffffffffffffffffffffffffffff1673ffffffffffffffffffffffffffffffffffffffff16815260200190815260200160002060009054906101000a900460ff16610782576040517f08c379a0000000000000000000000000000000000000000000000000000000008152600401808060200182810382526023815260200180610e206023913960400191505060405180910390fd5b816000600281111561079057fe5b6006828154811061079d57fe5b906000526020600020906006020160050160009054906101000a900460ff1660028111156107c757fe5b1461083a576040517f08c379a00000000000000000000000000000000000000000000000000000000081526004018080602001828103825260178152602001807f50726f706f73616c206973206e6f742070656e64696e6700000000000000000081525060200191505060405180910390fd5b82600560003373ffffffffffffffffffffffffffffffffffffffff1673ffffffffffffffffffffffffffffffffffffffff168152602001908152602001600020600082815260200190815260200160002060009054906101000a900460ff161561090c576040517f08c379a000000000000000000000000000000000000000000000000000000000815260040180806020018281038252601e8152602001807f416c726561647920766f746564206f6e20746869732070726f706f73616c000081525060200191505060405180910390fd5b82156109905760016006858154811061092157fe5b9060005260206000209060060201600301600082825401925050819055506001546006858154811061094f57fe5b9060005260206000209060060201600301541061098b5761096f84610ba8565b6000600260006101000a81548160ff0219169083151502179055505b610a73565b60016006858154811061099f57fe5b90600052602060002090600602016004016000828254019250508190555060015460005403600685815481106109d157fe5b9060005260206000209060060201600401541115610a72576001600685815481106109f857fe5b906000526020600020906006020160050160006101000a81548160ff02191690836002811115610a2457fe5b02179055506000600260006101000a81548160ff021916908315150217905550837f1f4f8a94e17d25044030f376d297769c8f9a1a2a0616e36b498a1e7370b5863f60405160405180910390a25b5b821515843373ffffffffffffffffffffffffffffffffffffffff167f8d85a70fd2c5d140a4a01143492d27ff82cfad4cead313e66c53f39b0feb5e0f60405160405180910390a450505050565b600460003373ffffffffffffffffffffffffffffffffffffffff1673ffffffffffffffffffffffffffffffffffffffff16815260200190815260200160002060009054906101000a900460ff16610b62576040517f08c379a0000000000000000000000000000000000000000000000000000000008152600401808060200182810382526023815260200180610e206023913960400191505060405180910390fd5b343373ffffffffffffffffffffffffffffffffffffffff167fe1fffcc4923d04b559f4d29a8bfc6cda04eb5b0d3c460751c2402c5c5cc9109c60405160405180910390a3565b80610bb1610dc8565b60068281548110610bbe57fe5b90600052602060002090600602016040518060c0016040529081600082015481526020016001820160009054906101000a900473ffffffffffffffffffffffffffffffffffffffff1673ffffffffffffffffffffffffffffffffffffffff1673ffffffffffffffffffffffffffffffffffffffff1681526020016002820154815260200160038201548152602001600482015481526020016005820160009054906101000a900460ff166002811115610c7357fe5b6002811115610c7e57fe5b8152505090508060400151471015610ce1576040517f08c379a0000000000000000000000000000000000000000000000000000000008152600401808060200182810382526026815260200180610e436026913960400191505060405180910390fd5b600060068481548110610cf057fe5b906000526020600020906006020190508060010160009054906101000a900473ffffffffffffffffffffffffffffffffffffffff1673ffffffffffffffffffffffffffffffffffffffff166108fc82600201549081150290604051600060405180830381858888f19350505050158015610d6e573d6000803e3d6000fd5b5060028160050160006101000a81548160ff02191690836002811115610d9057fe5b0217905550837ff49c7151a34f944c290bea0b71e18d61f02bfd24115ac372517b6ba94ebd954660405160405180910390a250505050565b6040518060c0016040528060008152602001600073ffffffffffffffffffffffffffffffffffffffff16815260200160008152602001600081526020016000815260200160006002811115610e1957fe5b8152509056fe4f6e6c79207369676e6572732063616e2063616c6c20746869732066756e6374696f6e4e6f7420656e6f7567682062616c616e636520746f2065786563757465207472616e73666572546865726520697320616c726561647920612070656e64696e672070726f706f73616ca264697066735822122003a0f459935e33b3a1a26915774999402521fe2b1f49f8bc5dd749636f50907564736f6c63430007000033",
  "immutableReferences": {},
  "source": "// SPDX-License-Identifier: Unlicense\n\npragma solidity ^0.7.0;\n\ncontract MultisigWallet {\n    uint public numSigners;\n    uint quorum;\n    bool proposalPending;\n    uint public numProposals;\n    mapping(address => bool) public signers;\n    mapping(address => mapping(uint => bool)) public votes;\n    TransferProposal[] public transferProposals;\n\n    enum Status { Pending, Rejected, Executed }\n\n    struct TransferProposal {\n        uint id;\n        address payable receiver;\n        uint amount;\n        uint yesVotes;\n        uint noVotes;\n        Status status;\n    }\n    \n    event Deposit(address indexed sender, uint indexed amount);\n    event TransferProposed(address indexed proposer, uint indexed proposalId);\n    event Vote(address indexed voter, uint indexed proposalId, bool indexed vote);\n    event TransferRejected(uint indexed proposalId);\n    event TransferExecuted(uint indexed proposalId);\n\n    modifier onlySigner {\n        require(signers[msg.sender], \"Only signers can call this function\");\n        _;\n    }\n\n    modifier isPending(uint _proposalId) {\n        require(transferProposals[_proposalId].status == Status.Pending, \"Proposal is not pending\");\n        _;\n    }\n\n    modifier hasntVoted(uint _proposalId) {\n        require(!votes[msg.sender][_proposalId], \"Already voted on this proposal\");\n        _;\n    }\n\n    modifier noPendingProposal {\n        require(!proposalPending, \"There is already a pending proposal\");\n        _;\n    }\n\n    modifier sufficientBalance(uint _proposalId) {\n        TransferProposal memory proposal = transferProposals[_proposalId];\n\n        require(address(this).balance >= proposal.amount, \"Not enough balance to execute transfer\");\n        _;\n    }\n\n    constructor(address[] memory _signers, uint _quorum) {\n        numSigners = _signers.length;\n        quorum = _quorum;\n        proposalPending = false;\n        numProposals = 0;\n\n        for (uint i = 0; i < numSigners; i++) {\n            signers[_signers[i]] = true;\n        }\n    }\n\n    function deposit() onlySigner public payable {\n        emit Deposit(msg.sender, msg.value);\n    }\n\n    function proposeTransfer(address payable _receiver, uint _amount) onlySigner noPendingProposal public {\n        transferProposals.push(TransferProposal({\n            id: transferProposals.length,\n            receiver: _receiver,\n            amount: _amount,\n            yesVotes: 1,\n            noVotes: 0,\n            status: Status.Pending\n        }));\n\n        proposalPending = true;\n        votes[msg.sender][transferProposals.length - 1] = true;\n        numProposals += 1;\n\n        emit TransferProposed(msg.sender, transferProposals.length - 1);\n    }\n\n    function voteOnTransferProposal(uint _proposalId, bool _vote) onlySigner isPending(_proposalId) hasntVoted(_proposalId) public {\n        if (_vote) {\n            transferProposals[_proposalId].yesVotes += 1;\n\n            if (transferProposals[_proposalId].yesVotes >= quorum) {\n                executeTransfer(_proposalId);\n                proposalPending = false;\n            }\n        } else {\n            transferProposals[_proposalId].noVotes += 1;\n\n            if (transferProposals[_proposalId].noVotes > (numSigners - quorum)) {\n                transferProposals[_proposalId].status = Status.Rejected;\n                proposalPending = false;\n                emit TransferRejected(_proposalId);\n            }\n        }\n\n        emit Vote(msg.sender, _proposalId, _vote);\n    }\n\n    function executeTransfer(uint _proposalId) sufficientBalance(_proposalId) private {\n        TransferProposal storage proposal = transferProposals[_proposalId];\n\n        proposal.receiver.transfer(proposal.amount);\n\n        proposal.status = Status.Executed;\n\n        emit TransferExecuted(_proposalId);\n    }\n\n    fallback() external {\n        revert();\n    }\n}",
  "sourcePath": "/Users/ashton/Programming/practice-smart-contracts/multisig-wallet/contracts/MultisigWallet.sol",
  "compiler": {
    "name": "solc",
    "version": "0.7.0+commit.9e61f92b.Emscripten.clang"
  },
  "schemaVersion": "3.2.4",
  "updatedAt": "2020-09-19T19:54:44.034Z",
  "networkType": "ethereum",
  "devdoc": {
    "kind": "dev",
    "methods": {},
    "version": 1
  },
  "userdoc": {
    "kind": "user",
    "methods": {},
    "version": 1
  }
}