{
  "contractName": "MultisigWallet",
  "abi": [
    {
      "inputs": [
        {
          "internalType": "address[]",
          "name": "_signers",
          "type": "address[]"
        },
        {
          "internalType": "uint256",
          "name": "_quorum",
          "type": "uint256"
        }
      ],
      "stateMutability": "nonpayable",
      "type": "constructor"
    },
    {
      "stateMutability": "nonpayable",
      "type": "fallback"
    },
    {
      "inputs": [],
      "name": "numSigners",
      "outputs": [
        {
          "internalType": "uint256",
          "name": "",
          "type": "uint256"
        }
      ],
      "stateMutability": "view",
      "type": "function",
      "constant": true
    },
    {
      "inputs": [
        {
          "internalType": "address",
          "name": "",
          "type": "address"
        }
      ],
      "name": "signers",
      "outputs": [
        {
          "internalType": "bool",
          "name": "",
          "type": "bool"
        }
      ],
      "stateMutability": "view",
      "type": "function",
      "constant": true
    },
    {
      "inputs": [
        {
          "internalType": "uint256",
          "name": "",
          "type": "uint256"
        }
      ],
      "name": "transferProposals",
      "outputs": [
        {
          "internalType": "uint256",
          "name": "id",
          "type": "uint256"
        },
        {
          "internalType": "address payable",
          "name": "receiver",
          "type": "address"
        },
        {
          "internalType": "uint256",
          "name": "amount",
          "type": "uint256"
        },
        {
          "internalType": "uint256",
          "name": "yesVotes",
          "type": "uint256"
        },
        {
          "internalType": "uint256",
          "name": "noVotes",
          "type": "uint256"
        },
        {
          "internalType": "enum MultisigWallet.Status",
          "name": "status",
          "type": "uint8"
        }
      ],
      "stateMutability": "view",
      "type": "function",
      "constant": true
    },
    {
      "inputs": [
        {
          "internalType": "address",
          "name": "",
          "type": "address"
        },
        {
          "internalType": "uint256",
          "name": "",
          "type": "uint256"
        }
      ],
      "name": "votes",
      "outputs": [
        {
          "internalType": "bool",
          "name": "",
          "type": "bool"
        }
      ],
      "stateMutability": "view",
      "type": "function",
      "constant": true
    },
    {
      "inputs": [],
      "name": "deposit",
      "outputs": [],
      "stateMutability": "payable",
      "type": "function",
      "payable": true
    },
    {
      "inputs": [
        {
          "internalType": "address payable",
          "name": "_receiver",
          "type": "address"
        },
        {
          "internalType": "uint256",
          "name": "_amount",
          "type": "uint256"
        }
      ],
      "name": "proposeTransfer",
      "outputs": [
        {
          "internalType": "bool",
          "name": "",
          "type": "bool"
        }
      ],
      "stateMutability": "nonpayable",
      "type": "function"
    },
    {
      "inputs": [
        {
          "internalType": "uint256",
          "name": "_proposalId",
          "type": "uint256"
        },
        {
          "internalType": "bool",
          "name": "_vote",
          "type": "bool"
        }
      ],
      "name": "voteOnTransferProposal",
      "outputs": [],
      "stateMutability": "nonpayable",
      "type": "function"
    }
  ],
  "bytecode": "0x608060405234801561001057600080fd5b50604051610c19380380610c198339818101604052604081101561003357600080fd5b810190808051604051939291908464010000000082111561005357600080fd5b8382019150602082018581111561006957600080fd5b825186602082028301116401000000008211171561008657600080fd5b8083526020830192505050908051906020019060200280838360005b838110156100bd5780820151818401526020810190506100a2565b505050509050016040526020018051906020019092919050505081516000819055508060038190555060005b60005481101561021957600180600085848151811061010457fe5b602002602001015173ffffffffffffffffffffffffffffffffffffffff1673ffffffffffffffffffffffffffffffffffffffff16815260200190815260200160002060006101000a81548160ff02191690831515021790555060005467ffffffffffffffff8111801561017657600080fd5b506040519080825280602002602001820160405280156101a55781602001602082028036833780820191505090505b50600260008584815181106101b657fe5b602002602001015173ffffffffffffffffffffffffffffffffffffffff1673ffffffffffffffffffffffffffffffffffffffff168152602001908152602001600020908051906020019061020b929190610221565b5080806001019150506100e9565b5050506102ef565b82805482825590600052602060002090601f016020900481019282156102b65791602002820160005b8382111561028757835183826101000a81548160ff021916908315150217905550926020019260010160208160000104928301926001030261024a565b80156102b45782816101000a81549060ff0219169055600101602081600001049283019260010302610287565b505b5090506102c391906102c7565b5090565b5b808211156102eb57600081816101000a81549060ff0219169055506001016102c8565b5090565b61091b806102fe6000396000f3fe6080604052600436106100745760003560e01c8063736c0d5b1161004e578063736c0d5b146101b65780639f2524ee1461021d578063b9ccec9a1461028e578063d0e30db0146102d557610075565b8063012fe7fd1461008757806311ac9a921461011a57806312679fed1461018b57610075565b5b34801561008157600080fd5b50600080fd5b34801561009357600080fd5b506100c0600480360360208110156100aa57600080fd5b81019080803590602001909291905050506102df565b604051808781526020018673ffffffffffffffffffffffffffffffffffffffff16815260200185815260200184815260200183815260200182600281111561010457fe5b8152602001965050505050505060405180910390f35b34801561012657600080fd5b506101736004803603604081101561013d57600080fd5b81019080803573ffffffffffffffffffffffffffffffffffffffff16906020019092919080359060200190929190505050610355565b60405180821515815260200191505060405180910390f35b34801561019757600080fd5b506101a061054b565b6040518082815260200191505060405180910390f35b3480156101c257600080fd5b50610205600480360360208110156101d957600080fd5b81019080803573ffffffffffffffffffffffffffffffffffffffff169060200190929190505050610551565b60405180821515815260200191505060405180910390f35b34801561022957600080fd5b506102766004803603604081101561024057600080fd5b81019080803573ffffffffffffffffffffffffffffffffffffffff16906020019092919080359060200190929190505050610571565b60405180821515815260200191505060405180910390f35b34801561029a57600080fd5b506102d3600480360360408110156102b157600080fd5b81019080803590602001909291908035151590602001909291905050506105b1565b005b6102dd6107d5565b005b600481815481106102ec57fe5b90600052602060002090600602016000915090508060000154908060010160009054906101000a900473ffffffffffffffffffffffffffffffffffffffff16908060020154908060030154908060040154908060050160009054906101000a900460ff16905086565b6000600160003373ffffffffffffffffffffffffffffffffffffffff1673ffffffffffffffffffffffffffffffffffffffff16815260200190815260200160002060009054906101000a900460ff166103ad57600080fd5b60046040518060c0016040528060048054905081526020018573ffffffffffffffffffffffffffffffffffffffff16815260200184815260200160018152602001600081526020016000600281111561040257fe5b81525090806001815401808255809150506001900390600052602060002090600602016000909190919091506000820151816000015560208201518160010160006101000a81548173ffffffffffffffffffffffffffffffffffffffff021916908373ffffffffffffffffffffffffffffffffffffffff16021790555060408201518160020155606082015181600301556080820151816004015560a08201518160050160006101000a81548160ff021916908360028111156104c157fe5b021790555050506001600260003373ffffffffffffffffffffffffffffffffffffffff1673ffffffffffffffffffffffffffffffffffffffff1681526020019081526020016000206001600480549050038154811061051c57fe5b90600052602060002090602091828204019190066101000a81548160ff02191690831515021790555092915050565b60005481565b60016020528060005260406000206000915054906101000a900460ff1681565b6002602052816000526040600020818154811061058a57fe5b9060005260206000209060209182820401919006915091509054906101000a900460ff1681565b600160003373ffffffffffffffffffffffffffffffffffffffff1673ffffffffffffffffffffffffffffffffffffffff16815260200190815260200160002060009054906101000a900460ff1661060757600080fd5b816000600281111561061557fe5b6004828154811061062257fe5b906000526020600020906006020160050160009054906101000a900460ff16600281111561064c57fe5b1461065657600080fd5b82600260003373ffffffffffffffffffffffffffffffffffffffff1673ffffffffffffffffffffffffffffffffffffffff16815260200190815260200160002081815481106106a157fe5b90600052602060002090602091828204019190069054906101000a900460ff16156106cb57600080fd5b8215610734576001600485815481106106e057fe5b9060005260206000209060060201600301600082825401925050819055506003546004858154811061070e57fe5b9060005260206000209060060201600301541061072f5761072e8461082d565b5b6107cf565b60016004858154811061074357fe5b906000526020600020906006020160040160008282540192505081905550600354600054036004858154811061077557fe5b90600052602060002090600602016004015411156107ce5760016004858154811061079c57fe5b906000526020600020906006020160050160006101000a81548160ff021916908360028111156107c857fe5b02179055505b5b50505050565b600160003373ffffffffffffffffffffffffffffffffffffffff1673ffffffffffffffffffffffffffffffffffffffff16815260200190815260200160002060009054906101000a900460ff1661082b57600080fd5b565b60006004828154811061083c57fe5b906000526020600020906006020190508060010160009054906101000a900473ffffffffffffffffffffffffffffffffffffffff1673ffffffffffffffffffffffffffffffffffffffff166108fc82600201549081150290604051600060405180830381858888f193505050501580156108ba573d6000803e3d6000fd5b5060028160050160006101000a81548160ff021916908360028111156108dc57fe5b0217905550505056fea264697066735822122021b36887789cc2d888ef8e670e83cdb5d9142a636517aec1b4d3de932503d41f64736f6c63430007000033",
  "immutableReferences": {},
  "source": "// SPDX-License-Identifier: Unlicense\n\npragma solidity ^0.7.0;\n\ncontract MultisigWallet {\n    uint public numSigners;\n    mapping(address => bool) public signers;\n    mapping(address => bool[]) public votes;\n    uint quorum;\n    TransferProposal[] public transferProposals;\n\n    enum Status { Voting, Rejected, Executed }\n\n    struct TransferProposal {\n        uint id;\n        address payable receiver;\n        uint amount;\n        uint yesVotes;\n        uint noVotes;\n        Status status;\n    }\n\n    modifier onlySigner {\n        require(signers[msg.sender]);\n        _;\n    }\n\n    modifier hasVotingStatus(uint _proposalId) {\n        require(transferProposals[_proposalId].status == Status.Voting);\n        _;\n    }\n\n    modifier hasntVoted(uint _proposalId) {\n        require(!votes[msg.sender][_proposalId]);\n        _;\n    }\n\n    constructor(address[] memory _signers, uint _quorum) {\n        numSigners = _signers.length;\n        quorum = _quorum;\n\n        for (uint i = 0; i < numSigners; i++) {\n            signers[_signers[i]] = true;\n            votes[_signers[i]] = new bool[](numSigners);\n        }\n    }\n\n    function deposit() onlySigner public payable {}\n\n    function proposeTransfer(address payable _receiver, uint _amount) onlySigner public returns (bool) {\n        transferProposals.push(TransferProposal({\n            id: transferProposals.length,\n            receiver: _receiver,\n            amount: _amount,\n            yesVotes: 1,\n            noVotes: 0,\n            status: Status.Voting\n        }));\n\n        votes[msg.sender][transferProposals.length - 1] = true;\n    }\n\n    function voteOnTransferProposal(uint _proposalId, bool _vote) onlySigner hasVotingStatus(_proposalId) hasntVoted(_proposalId) public {\n        if (_vote) {\n            transferProposals[_proposalId].yesVotes += 1;\n\n            if (transferProposals[_proposalId].yesVotes >= quorum) {\n                executeTransfer(_proposalId);\n            }\n        } else {\n            transferProposals[_proposalId].noVotes += 1;\n\n            if (transferProposals[_proposalId].noVotes > (numSigners - quorum)) {\n                transferProposals[_proposalId].status = Status.Rejected;\n            }\n        }\n    }\n\n    function executeTransfer(uint _proposalId) private {\n        TransferProposal storage proposal = transferProposals[_proposalId];\n\n        proposal.receiver.transfer(proposal.amount);\n\n        proposal.status = Status.Executed;\n    }\n\n    fallback() external {\n        revert();\n    }\n}",
  "sourcePath": "/Users/ashton/Programming/practice-smart-contracts/multisig-wallet/contracts/MultisigWallet.sol",
  "compiler": {
    "name": "solc",
    "version": "0.7.0+commit.9e61f92b.Emscripten.clang"
  },
  "schemaVersion": "3.2.4",
  "updatedAt": "2020-09-17T19:04:41.924Z",
  "networkType": "ethereum",
  "devdoc": {
    "kind": "dev",
    "methods": {},
    "version": 1
  },
  "userdoc": {
    "kind": "user",
    "methods": {},
    "version": 1
  }
}